:1000000012C08EC02BC02AC029C028C027C026C05D
:1000100060C024C023C022C021C020C01FC01EC099
:100020001DC01CC01BC011241FBECFE5D4E0DEBF25
:10003000CDBF10E0A0E6B0E0EEE5F1E002C0059033
:100040000D92AC36B107D9F720E0ACE6B0E001C0C4
:100050001D92AE36B207E1F702D07FC0D1CFCF9369
:10006000DF93CDB7DEB72A970FB6F894DEBF0FBE89
:10007000CDBF87B38FEF87BB88BB8BB780648BBF47
:1000800085B7826085BF8EB585608EBD809160002A
:10009000909161009DBD8CBD84E089BF78948AE019
:1000A000E2E6F0E0DE01119601900D928A95E1F70B
:1000B00010926D0010926C00E0916C00F0916D0058
:1000C00081E090E08C0F9D1FE80FF91F808188BBB5
:1000D000F3CF1F920F920FB60F9211248F939F931D
:1000E00080916C0090916D00019690936D008093CB
:1000F0006C0080916000909161009DBD8CBD8091ED
:100100006C0090916D000A9724F010926D0010928F
:100110006C009F918F910F900FBE0F901F901895BC
:100120001F920F920FB60F9211248F939F9380917D
:100130006C0090916D00019690936D0080936C001F
:100140000A9724F010926D0010926C009F918F918D
:0E0150000F900FBE0F901F901895F894FFCFE0
:0C015E0030FCC0F9A4B0999282F88090A7
:00000001FF
